{
  "contractName": "Conference",
  "abi": [
    {
      "constant": true,
      "inputs": [
        {
          "name": "",
          "type": "address"
        }
      ],
      "name": "registrantsPaid",
      "outputs": [
        {
          "name": "",
          "type": "uint256"
        }
      ],
      "payable": false,
      "stateMutability": "view",
      "type": "function"
    },
    {
      "constant": true,
      "inputs": [],
      "name": "organizer",
      "outputs": [
        {
          "name": "",
          "type": "address"
        }
      ],
      "payable": false,
      "stateMutability": "view",
      "type": "function"
    },
    {
      "constant": true,
      "inputs": [],
      "name": "quota",
      "outputs": [
        {
          "name": "",
          "type": "uint256"
        }
      ],
      "payable": false,
      "stateMutability": "view",
      "type": "function"
    },
    {
      "constant": true,
      "inputs": [],
      "name": "numRegistrants",
      "outputs": [
        {
          "name": "",
          "type": "uint256"
        }
      ],
      "payable": false,
      "stateMutability": "view",
      "type": "function"
    },
    {
      "constant": false,
      "inputs": [],
      "name": "buyTicket",
      "outputs": [],
      "payable": false,
      "stateMutability": "nonpayable",
      "type": "function"
    },
    {
      "inputs": [],
      "payable": false,
      "stateMutability": "nonpayable",
      "type": "constructor"
    },
    {
      "anonymous": false,
      "inputs": [
        {
          "indexed": false,
          "name": "_from",
          "type": "address"
        },
        {
          "indexed": false,
          "name": "_amount",
          "type": "uint256"
        }
      ],
      "name": "Deposit",
      "type": "event"
    },
    {
      "anonymous": false,
      "inputs": [
        {
          "indexed": false,
          "name": "_to",
          "type": "address"
        },
        {
          "indexed": false,
          "name": "_amount",
          "type": "uint256"
        }
      ],
      "name": "Refund",
      "type": "event"
    }
  ],
  "bytecode": "0x6060604052341561000f57600080fd5b336000806101000a81548173ffffffffffffffffffffffffffffffffffffffff021916908373ffffffffffffffffffffffffffffffffffffffff160217905550606460038190555060006002819055506102c58061006e6000396000f30060606040526004361061006d576000357c0100000000000000000000000000000000000000000000000000000000900463ffffffff16806313381fbf1461007257806361203265146100bf578063cebe09c914610114578063ec3a6f731461013d578063edca914c14610166575b600080fd5b341561007d57600080fd5b6100a9600480803573ffffffffffffffffffffffffffffffffffffffff1690602001909190505061017b565b6040518082815260200191505060405180910390f35b34156100ca57600080fd5b6100d2610193565b604051808273ffffffffffffffffffffffffffffffffffffffff1673ffffffffffffffffffffffffffffffffffffffff16815260200191505060405180910390f35b341561011f57600080fd5b6101276101b8565b6040518082815260200191505060405180910390f35b341561014857600080fd5b6101506101be565b6040518082815260200191505060405180910390f35b341561017157600080fd5b6101796101c4565b005b60016020528060005260406000206000915090505481565b6000809054906101000a900473ffffffffffffffffffffffffffffffffffffffff1681565b60035481565b60025481565b6003546002541015156101d657600080fd5b34600160003373ffffffffffffffffffffffffffffffffffffffff1673ffffffffffffffffffffffffffffffffffffffff168152602001908152602001600020819055506002600081548092919060010191905055507fe1fffcc4923d04b559f4d29a8bfc6cda04eb5b0d3c460751c2402c5c5cc9109c3334604051808373ffffffffffffffffffffffffffffffffffffffff1673ffffffffffffffffffffffffffffffffffffffff1681526020018281526020019250505060405180910390a15600a165627a7a72305820c2c32b0633fb62a8713b0ef6564f789bd16e390855674014ec8b345c8d22e1860029",
  "source": "pragma solidity ^0.4.0;\n\ncontract Conference {\n\t\n \taddress public organizer;\n \tmapping (address => uint) public registrantsPaid;\n \tuint public numRegistrants;\n \tuint public quota;\n\n \tevent Deposit(address _from, uint _amount);\n \tevent Refund(address _to, uint _amount);\n\n\n \tfunction Conference() {\n\n \t\torganizer = msg.sender;\n \t\tquota = 100;\n \t\tnumRegistrants = 0;\n \t}\n\n\n \tfunction buyTicket() public {\n \t\tif(numRegistrants >= quota) {\n \t\t\tthrow;\n \t\t}\n\n \t\tregistrantsPaid[msg.sender] = msg.value;\n \t\tnumRegistrants++;\n \t\tDeposit(msg.sender, msg.value);\n \t}\n\n}",
  "sourcePath": "C:\\Users\\Pat Doyle\\Documents\\Ethereum Projects\\ethereum_demo\\contracts\\Conference.sol",
  "compiler": {
    "name": "solc",
    "version": "0.4.18+commit.9cf6e910.Emscripten.clang"
  },
  "schemaVersion": "1.0.1",
  "updatedAt": "2018-02-19T00:19:23.515Z"
}